{
  "contractName": "Faucet",
  "abi": [
    {
      "inputs": [],
      "stateMutability": "nonpayable",
      "type": "constructor"
    },
    {
      "inputs": [],
      "name": "numOfFunders",
      "outputs": [
        {
          "internalType": "uint256",
          "name": "",
          "type": "uint256"
        }
      ],
      "stateMutability": "view",
      "type": "function",
      "constant": true
    },
    {
      "stateMutability": "payable",
      "type": "receive",
      "payable": true
    },
    {
      "inputs": [],
      "name": "addFunds",
      "outputs": [],
      "stateMutability": "payable",
      "type": "function",
      "payable": true
    },
    {
      "inputs": [
        {
          "internalType": "uint8",
          "name": "index",
          "type": "uint8"
        }
      ],
      "name": "getFundersAtIndex",
      "outputs": [
        {
          "internalType": "address",
          "name": "",
          "type": "address"
        }
      ],
      "stateMutability": "view",
      "type": "function",
      "constant": true
    },
    {
      "inputs": [],
      "name": "getAllFunders",
      "outputs": [
        {
          "internalType": "address[]",
          "name": "",
          "type": "address[]"
        }
      ],
      "stateMutability": "view",
      "type": "function",
      "constant": true
    },
    {
      "inputs": [
        {
          "internalType": "address",
          "name": "_address",
          "type": "address"
        }
      ],
      "name": "withdrawAllFundsToAddress",
      "outputs": [],
      "stateMutability": "nonpayable",
      "type": "function"
    },
    {
      "inputs": [
        {
          "internalType": "uint256",
          "name": "amount",
          "type": "uint256"
        }
      ],
      "name": "withdraw",
      "outputs": [],
      "stateMutability": "nonpayable",
      "type": "function"
    }
  ],
  "bytecode": "0x608060405234801561001057600080fd5b50336000806101000a81548173ffffffffffffffffffffffffffffffffffffffff021916908373ffffffffffffffffffffffffffffffffffffffff160217905550610a0e806100606000396000f3fe6080604052600436106100595760003560e01c80632e1a7d4d1461006d57806357452000146100965780636fbbb55d146100bf578063a26759cb146100ea578063af7f2c9b146100f4578063f388b2661461011f57610068565b366100685761006661015c565b005b600080fd5b34801561007957600080fd5b50610094600480360381019061008f9190610663565b61027c565b005b3480156100a257600080fd5b506100bd60048036038101906100b8919061063a565b610397565b005b3480156100cb57600080fd5b506100d461046f565b6040516100e191906107b9565b60405180910390f35b6100f261015c565b005b34801561010057600080fd5b506101096105b5565b604051610116919061081b565b60405180910390f35b34801561012b57600080fd5b506101466004803603810190610141919061068c565b6105bb565b604051610153919061079e565b60405180910390f35b6000339050600260008273ffffffffffffffffffffffffffffffffffffffff1673ffffffffffffffffffffffffffffffffffffffff16815260200190815260200160002060009054906101000a900460ff16610279576000600160008154809291906101c7906108c9565b9190505590506001600260008473ffffffffffffffffffffffffffffffffffffffff1673ffffffffffffffffffffffffffffffffffffffff16815260200190815260200160002060006101000a81548160ff021916908315150217905550816003600083815260200190815260200160002060006101000a81548173ffffffffffffffffffffffffffffffffffffffff021916908373ffffffffffffffffffffffffffffffffffffffff160217905550505b50565b60008054906101000a900473ffffffffffffffffffffffffffffffffffffffff1673ffffffffffffffffffffffffffffffffffffffff163373ffffffffffffffffffffffffffffffffffffffff161461030a576040517f08c379a0000000000000000000000000000000000000000000000000000000008152600401610301906107db565b60405180910390fd5b4781111561034d576040517f08c379a0000000000000000000000000000000000000000000000000000000008152600401610344906107fb565b60405180910390fd5b3373ffffffffffffffffffffffffffffffffffffffff166108fc829081150290604051600060405180830381858888f19350505050158015610393573d6000803e3d6000fd5b5050565b60008054906101000a900473ffffffffffffffffffffffffffffffffffffffff1673ffffffffffffffffffffffffffffffffffffffff163373ffffffffffffffffffffffffffffffffffffffff1614610425576040517f08c379a000000000000000000000000000000000000000000000000000000000815260040161041c906107db565b60405180910390fd5b8073ffffffffffffffffffffffffffffffffffffffff166108fc479081150290604051600060405180830381858888f1935050505015801561046b573d6000803e3d6000fd5b5050565b6060600060015467ffffffffffffffff8111156104b5577f4e487b7100000000000000000000000000000000000000000000000000000000600052604160045260246000fd5b6040519080825280602002602001820160405280156104e35781602001602082028036833780820191505090505b50905060005b6001548110156105ad576003600082815260200190815260200160002060009054906101000a900473ffffffffffffffffffffffffffffffffffffffff16828281518110610560577f4e487b7100000000000000000000000000000000000000000000000000000000600052603260045260246000fd5b602002602001019073ffffffffffffffffffffffffffffffffffffffff16908173ffffffffffffffffffffffffffffffffffffffff168152505080806105a5906108c9565b9150506104e9565b508091505090565b60015481565b6000600360008360ff16815260200190815260200160002060009054906101000a900473ffffffffffffffffffffffffffffffffffffffff169050919050565b60008135905061060a81610993565b92915050565b60008135905061061f816109aa565b92915050565b600081359050610634816109c1565b92915050565b60006020828403121561064c57600080fd5b600061065a848285016105fb565b91505092915050565b60006020828403121561067557600080fd5b600061068384828501610610565b91505092915050565b60006020828403121561069e57600080fd5b60006106ac84828501610625565b91505092915050565b60006106c183836106cd565b60208301905092915050565b6106d681610880565b82525050565b6106e581610880565b82525050565b60006106f682610846565b610700818561085e565b935061070b83610836565b8060005b8381101561073c57815161072388826106b5565b975061072e83610851565b92505060018101905061070f565b5085935050505092915050565b600061075660158361086f565b915061076182610941565b602082019050919050565b6000610779601e8361086f565b91506107848261096a565b602082019050919050565b610798816108b2565b82525050565b60006020820190506107b360008301846106dc565b92915050565b600060208201905081810360008301526107d381846106eb565b905092915050565b600060208201905081810360008301526107f481610749565b9050919050565b600060208201905081810360008301526108148161076c565b9050919050565b6000602082019050610830600083018461078f565b92915050565b6000819050602082019050919050565b600081519050919050565b6000602082019050919050565b600082825260208201905092915050565b600082825260208201905092915050565b600061088b82610892565b9050919050565b600073ffffffffffffffffffffffffffffffffffffffff82169050919050565b6000819050919050565b600060ff82169050919050565b60006108d4826108b2565b91507fffffffffffffffffffffffffffffffffffffffffffffffffffffffffffffffff82141561090757610906610912565b5b600182019050919050565b7f4e487b7100000000000000000000000000000000000000000000000000000000600052601160045260246000fd5b7f796f7520617265206e6f7420746865206f776e65720000000000000000000000600082015250565b7f4e6f7420656e6f7567682065746820696e2074686520636f6e74726163740000600082015250565b61099c81610880565b81146109a757600080fd5b50565b6109b3816108b2565b81146109be57600080fd5b50565b6109ca816108bc565b81146109d557600080fd5b5056fea2646970667358221220b404c6038c495925c69229125e7c2d8dd450c12a858a84f26e5a13e3dd3d8b9a64736f6c63430008040033",
  "immutableReferences": {},
  "source": "pragma solidity >=0.8.4 <0.9.0;\r\n\r\ncontract Faucet {\r\n\r\n    address private owner;\r\n\r\n    constructor() {\r\n        owner = msg.sender;\r\n    }\r\n\r\n    uint public numOfFunders;\r\n    // one mapping will store the funders address as keys, preventing duplicates\r\n    // the other will store them as a copy of those keys, mapped by numbers\r\n    mapping(address => bool) private funders; \r\n    mapping(uint => address) private lutFunders; // look up table\r\n\r\n    // this function is called when no function name is specified in the call\r\n    // external functions can only be called by other contracts and other txs\r\n    receive() external payable { // payable tell this function will receive tokens\r\n        addFunds();\r\n    }\r\n    // adds to the funders mapping any address that sends eth to this contract  \r\n    function addFunds() public payable {\r\n        address funder = msg.sender;\r\n        // dont add address to funders if it was already added\r\n        if (!funders[funder]){\r\n            uint index = numOfFunders++;\r\n            funders[funder] = true;\r\n            lutFunders[index] = funder;\r\n        }\r\n    }\r\n\r\n    function getFundersAtIndex(uint8 index) external view returns(address){\r\n        return lutFunders[index];\r\n    }\r\n    function getAllFunders() external view returns(address[] memory) {\r\n        address[] memory _funders = new address[](numOfFunders);\r\n        for (uint256 index = 0; index < numOfFunders; index++) {\r\n            _funders[index] = lutFunders[index];\r\n        }\r\n        return _funders;\r\n\r\n    }\r\n    // get back the money\r\n    function withdrawAllFundsToAddress(address _address) external onlyAdmin() {\r\n        payable(_address).transfer(address(this).balance);\r\n    }\r\n    function withdraw(uint amount) external onlyAdmin(){\r\n        require(amount <= address(this).balance, \"Not enough eth in the contract\");\r\n        payable(msg.sender).transfer(amount);\r\n    }\r\n    modifier onlyAdmin() {\r\n        require(msg.sender == owner, \"you are not the owner\");\r\n        _;\r\n    }\r\n}",
  "sourcePath": "C:\\Users\\TrashCan\\Desktop\\Nft marketplace filip jerga\\faucet\\contracts\\faucetContract.sol",
  "compiler": {
    "name": "solc",
    "version": "0.8.4+commit.c7e474f2.Emscripten.clang"
  },
  "schemaVersion": "3.4.12",
  "updatedAt": "2023-03-09T02:13:41.335Z",
  "networkType": "ethereum",
  "devdoc": {
    "kind": "dev",
    "methods": {},
    "version": 1
  },
  "userdoc": {
    "kind": "user",
    "methods": {},
    "version": 1
  }
}